{
  "_format": "hh-sol-artifact-1",
  "contractName": "Transaction",
  "sourceName": "contracts/Transaction.sol",
  "abi": [
    {
      "anonymous": false,
      "inputs": [
        {
          "indexed": false,
          "internalType": "address",
          "name": "from",
          "type": "address"
        },
        {
          "indexed": false,
          "internalType": "address",
          "name": "to",
          "type": "address"
        },
        {
          "indexed": false,
          "internalType": "uint256",
          "name": "amount",
          "type": "uint256"
        },
        {
          "indexed": false,
          "internalType": "uint256",
          "name": "timestamp",
          "type": "uint256"
        }
      ],
      "name": "Transfer",
      "type": "event"
    },
    {
      "inputs": [
        {
          "internalType": "address",
          "name": "from",
          "type": "address"
        },
        {
          "internalType": "address",
          "name": "to",
          "type": "address"
        },
        {
          "internalType": "uint256",
          "name": "amount",
          "type": "uint256"
        }
      ],
      "name": "addToBlockchain",
      "outputs": [],
      "stateMutability": "nonpayable",
      "type": "function"
    },
    {
      "inputs": [],
      "name": "getAllTransactions",
      "outputs": [
        {
          "components": [
            {
              "internalType": "address",
              "name": "from",
              "type": "address"
            },
            {
              "internalType": "address",
              "name": "to",
              "type": "address"
            },
            {
              "internalType": "uint256",
              "name": "amount",
              "type": "uint256"
            },
            {
              "internalType": "uint256",
              "name": "timestamp",
              "type": "uint256"
            }
          ],
          "internalType": "struct Transaction.TransferStruct[]",
          "name": "",
          "type": "tuple[]"
        }
      ],
      "stateMutability": "view",
      "type": "function"
    },
    {
      "inputs": [],
      "name": "getTransactionCount",
      "outputs": [
        {
          "internalType": "uint256",
          "name": "",
          "type": "uint256"
        }
      ],
      "stateMutability": "view",
      "type": "function"
    }
  ],
  "bytecode": "0x6080604052348015600f57600080fd5b5061068a8061001f6000396000f3fe608060405234801561001057600080fd5b50600436106100415760003560e01c806327506f53146100465780632e7700f014610064578063567fe92e14610082575b600080fd5b61004e61009e565b60405161005b91906104a1565b60405180910390f35b61006c6101bd565b60405161007991906104d2565b60405180910390f35b61009c6004803603810190610097919061054a565b6101c6565b005b60606001805480602002602001604051908101604052809291908181526020016000905b828210156101b457838290600052602060002090600402016040518060800160405290816000820160009054906101000a900473ffffffffffffffffffffffffffffffffffffffff1673ffffffffffffffffffffffffffffffffffffffff1673ffffffffffffffffffffffffffffffffffffffff1681526020016001820160009054906101000a900473ffffffffffffffffffffffffffffffffffffffff1673ffffffffffffffffffffffffffffffffffffffff1673ffffffffffffffffffffffffffffffffffffffff16815260200160028201548152602001600382015481525050815260200190600101906100c2565b50505050905090565b60008054905090565b600060405180608001604052808573ffffffffffffffffffffffffffffffffffffffff1681526020018473ffffffffffffffffffffffffffffffffffffffff168152602001838152602001428152509050600181908060018154018082558091505060019003906000526020600020906004020160009091909190915060008201518160000160006101000a81548173ffffffffffffffffffffffffffffffffffffffff021916908373ffffffffffffffffffffffffffffffffffffffff16021790555060208201518160010160006101000a81548173ffffffffffffffffffffffffffffffffffffffff021916908373ffffffffffffffffffffffffffffffffffffffff1602179055506040820151816002015560608201518160030155505060016000808282546102f991906105cc565b925050819055507f9ed053bb818ff08b8353cd46f78db1f0799f31c9e4458fdb425c10eccd2efc4484848442604051610335949392919061060f565b60405180910390a150505050565b600081519050919050565b600082825260208201905092915050565b6000819050602082019050919050565b600073ffffffffffffffffffffffffffffffffffffffff82169050919050565b600061039a8261036f565b9050919050565b6103aa8161038f565b82525050565b6000819050919050565b6103c3816103b0565b82525050565b6080820160008201516103df60008501826103a1565b5060208201516103f260208501826103a1565b50604082015161040560408501826103ba565b50606082015161041860608501826103ba565b50505050565b600061042a83836103c9565b60808301905092915050565b6000602082019050919050565b600061044e82610343565b610458818561034e565b93506104638361035f565b8060005b8381101561049457815161047b888261041e565b975061048683610436565b925050600181019050610467565b5085935050505092915050565b600060208201905081810360008301526104bb8184610443565b905092915050565b6104cc816103b0565b82525050565b60006020820190506104e760008301846104c3565b92915050565b600080fd5b6104fb8161038f565b811461050657600080fd5b50565b600081359050610518816104f2565b92915050565b610527816103b0565b811461053257600080fd5b50565b6000813590506105448161051e565b92915050565b600080600060608486031215610563576105626104ed565b5b600061057186828701610509565b935050602061058286828701610509565b925050604061059386828701610535565b9150509250925092565b7f4e487b7100000000000000000000000000000000000000000000000000000000600052601160045260246000fd5b60006105d7826103b0565b91506105e2836103b0565b92508282019050808211156105fa576105f961059d565b5b92915050565b6106098161038f565b82525050565b60006080820190506106246000830187610600565b6106316020830186610600565b61063e60408301856104c3565b61064b60608301846104c3565b9594505050505056fea2646970667358221220fefb2aa207278c19f353884c8d62107c58d0102865e9f5928196abb108116fa764736f6c634300081a0033",
  "linkReferences": {},
  "deployedLinkReferences": {}
}