{
  "_format": "hh-sol-artifact-1",
  "contractName": "Transaction",
  "sourceName": "contracts/Transaction.sol",
  "abi": [
    {
      "anonymous": false,
      "inputs": [
        {
          "indexed": false,
          "internalType": "address",
          "name": "from",
          "type": "address"
        },
        {
          "indexed": false,
          "internalType": "address",
          "name": "to",
          "type": "address"
        },
        {
          "indexed": false,
          "internalType": "uint256",
          "name": "amount",
          "type": "uint256"
        },
        {
          "indexed": false,
          "internalType": "uint256",
          "name": "timestamp",
          "type": "uint256"
        }
      ],
      "name": "Transfer",
      "type": "event"
    },
    {
      "inputs": [
        {
          "internalType": "address",
          "name": "from",
          "type": "address"
        },
        {
          "internalType": "address",
          "name": "to",
          "type": "address"
        },
        {
          "internalType": "uint256",
          "name": "amount",
          "type": "uint256"
        }
      ],
      "name": "addToBlockchain",
      "outputs": [],
      "stateMutability": "nonpayable",
      "type": "function"
    },
    {
      "inputs": [],
      "name": "getAllTransactions",
      "outputs": [
        {
          "components": [
            {
              "internalType": "address",
              "name": "from",
              "type": "address"
            },
            {
              "internalType": "address",
              "name": "to",
              "type": "address"
            },
            {
              "internalType": "uint256",
              "name": "amount",
              "type": "uint256"
            },
            {
              "internalType": "uint256",
              "name": "timestamp",
              "type": "uint256"
            }
          ],
          "internalType": "struct Transaction.TransferStruct[]",
          "name": "",
          "type": "tuple[]"
        }
      ],
      "stateMutability": "view",
      "type": "function"
    },
    {
      "inputs": [],
      "name": "getTransactionCount",
      "outputs": [
        {
          "internalType": "uint256",
          "name": "",
          "type": "uint256"
        }
      ],
      "stateMutability": "view",
      "type": "function"
    }
  ],
  "bytecode": "0x6080604052348015600f57600080fd5b506107d38061001f6000396000f3fe608060405234801561001057600080fd5b50600436106100415760003560e01c806327506f53146100465780632e7700f014610064578063567fe92e14610082575b600080fd5b61004e61009e565b60405161005b9190610547565b60405180910390f35b61006c6101bd565b6040516100799190610578565b60405180910390f35b61009c600480360381019061009791906105f0565b6101c6565b005b60606001805480602002602001604051908101604052809291908181526020016000905b828210156101b457838290600052602060002090600402016040518060800160405290816000820160009054906101000a900473ffffffffffffffffffffffffffffffffffffffff1673ffffffffffffffffffffffffffffffffffffffff1673ffffffffffffffffffffffffffffffffffffffff1681526020016001820160009054906101000a900473ffffffffffffffffffffffffffffffffffffffff1673ffffffffffffffffffffffffffffffffffffffff1673ffffffffffffffffffffffffffffffffffffffff16815260200160028201548152602001600382015481525050815260200190600101906100c2565b50505050905090565b60008054905090565b3373ffffffffffffffffffffffffffffffffffffffff168373ffffffffffffffffffffffffffffffffffffffff1614801561022d57503373ffffffffffffffffffffffffffffffffffffffff168273ffffffffffffffffffffffffffffffffffffffff1614155b61026c576040517f08c379a0000000000000000000000000000000000000000000000000000000008152600401610263906106c6565b60405180910390fd5b600060405180608001604052808573ffffffffffffffffffffffffffffffffffffffff1681526020018473ffffffffffffffffffffffffffffffffffffffff168152602001838152602001428152509050600181908060018154018082558091505060019003906000526020600020906004020160009091909190915060008201518160000160006101000a81548173ffffffffffffffffffffffffffffffffffffffff021916908373ffffffffffffffffffffffffffffffffffffffff16021790555060208201518160010160006101000a81548173ffffffffffffffffffffffffffffffffffffffff021916908373ffffffffffffffffffffffffffffffffffffffff16021790555060408201518160020155606082015181600301555050600160008082825461039f9190610715565b925050819055507f9ed053bb818ff08b8353cd46f78db1f0799f31c9e4458fdb425c10eccd2efc44848484426040516103db9493929190610758565b60405180910390a150505050565b600081519050919050565b600082825260208201905092915050565b6000819050602082019050919050565b600073ffffffffffffffffffffffffffffffffffffffff82169050919050565b600061044082610415565b9050919050565b61045081610435565b82525050565b6000819050919050565b61046981610456565b82525050565b6080820160008201516104856000850182610447565b5060208201516104986020850182610447565b5060408201516104ab6040850182610460565b5060608201516104be6060850182610460565b50505050565b60006104d0838361046f565b60808301905092915050565b6000602082019050919050565b60006104f4826103e9565b6104fe81856103f4565b935061050983610405565b8060005b8381101561053a57815161052188826104c4565b975061052c836104dc565b92505060018101905061050d565b5085935050505092915050565b6000602082019050818103600083015261056181846104e9565b905092915050565b61057281610456565b82525050565b600060208201905061058d6000830184610569565b92915050565b600080fd5b6105a181610435565b81146105ac57600080fd5b50565b6000813590506105be81610598565b92915050565b6105cd81610456565b81146105d857600080fd5b50565b6000813590506105ea816105c4565b92915050565b60008060006060848603121561060957610608610593565b5b6000610617868287016105af565b9350506020610628868287016105af565b9250506040610639868287016105db565b9150509250925092565b600082825260208201905092915050565b7f596f752063616e2774207472616e736665722045544820746f20796f7572736560008201527f6c66000000000000000000000000000000000000000000000000000000000000602082015250565b60006106b0602283610643565b91506106bb82610654565b604082019050919050565b600060208201905081810360008301526106df816106a3565b9050919050565b7f4e487b7100000000000000000000000000000000000000000000000000000000600052601160045260246000fd5b600061072082610456565b915061072b83610456565b9250828201905080821115610743576107426106e6565b5b92915050565b61075281610435565b82525050565b600060808201905061076d6000830187610749565b61077a6020830186610749565b6107876040830185610569565b6107946060830184610569565b9594505050505056fea2646970667358221220000b378716e18dfe309820694fd7329c28ce855a69a2123b3f20f3d78eed251d64736f6c634300081a0033",
  "linkReferences": {},
  "deployedLinkReferences": {}
}