{
  "_format": "hh-sol-artifact-1",
  "contractName": "Transaction",
  "sourceName": "contracts/Transaction.sol",
  "abi": [
    {
      "anonymous": false,
      "inputs": [
        {
          "indexed": false,
          "internalType": "address",
          "name": "from",
          "type": "address"
        },
        {
          "indexed": false,
          "internalType": "address",
          "name": "to",
          "type": "address"
        },
        {
          "indexed": false,
          "internalType": "uint256",
          "name": "amount",
          "type": "uint256"
        },
        {
          "indexed": false,
          "internalType": "uint256",
          "name": "timestamp",
          "type": "uint256"
        }
      ],
      "name": "Transfer",
      "type": "event"
    },
    {
      "inputs": [
        {
          "internalType": "address",
          "name": "from",
          "type": "address"
        },
        {
          "internalType": "address",
          "name": "to",
          "type": "address"
        },
        {
          "internalType": "uint256",
          "name": "amount",
          "type": "uint256"
        },
        {
          "internalType": "uint256",
          "name": "",
          "type": "uint256"
        }
      ],
      "name": "addToBlockchain",
      "outputs": [],
      "stateMutability": "nonpayable",
      "type": "function"
    },
    {
      "inputs": [],
      "name": "getAllTransactions",
      "outputs": [
        {
          "components": [
            {
              "internalType": "address",
              "name": "from",
              "type": "address"
            },
            {
              "internalType": "address",
              "name": "to",
              "type": "address"
            },
            {
              "internalType": "uint256",
              "name": "amount",
              "type": "uint256"
            },
            {
              "internalType": "uint256",
              "name": "timestamp",
              "type": "uint256"
            }
          ],
          "internalType": "struct Transaction.TransferStruct[]",
          "name": "",
          "type": "tuple[]"
        }
      ],
      "stateMutability": "view",
      "type": "function"
    },
    {
      "inputs": [],
      "name": "getTransactionCount",
      "outputs": [
        {
          "internalType": "uint256",
          "name": "",
          "type": "uint256"
        }
      ],
      "stateMutability": "view",
      "type": "function"
    }
  ],
  "bytecode": "0x6080604052348015600f57600080fd5b5061069f8061001f6000396000f3fe608060405234801561001057600080fd5b50600436106100415760003560e01c806327506f53146100465780632e7700f0146100645780637eddbb2114610082575b600080fd5b61004e61009e565b60405161005b91906104a2565b60405180910390f35b61006c6101bd565b60405161007991906104d3565b60405180910390f35b61009c6004803603810190610097919061054b565b6101c6565b005b60606001805480602002602001604051908101604052809291908181526020016000905b828210156101b457838290600052602060002090600402016040518060800160405290816000820160009054906101000a900473ffffffffffffffffffffffffffffffffffffffff1673ffffffffffffffffffffffffffffffffffffffff1673ffffffffffffffffffffffffffffffffffffffff1681526020016001820160009054906101000a900473ffffffffffffffffffffffffffffffffffffffff1673ffffffffffffffffffffffffffffffffffffffff1673ffffffffffffffffffffffffffffffffffffffff16815260200160028201548152602001600382015481525050815260200190600101906100c2565b50505050905090565b60008054905090565b600060405180608001604052808673ffffffffffffffffffffffffffffffffffffffff1681526020018573ffffffffffffffffffffffffffffffffffffffff168152602001848152602001428152509050600181908060018154018082558091505060019003906000526020600020906004020160009091909190915060008201518160000160006101000a81548173ffffffffffffffffffffffffffffffffffffffff021916908373ffffffffffffffffffffffffffffffffffffffff16021790555060208201518160010160006101000a81548173ffffffffffffffffffffffffffffffffffffffff021916908373ffffffffffffffffffffffffffffffffffffffff1602179055506040820151816002015560608201518160030155505060016000808282546102f991906105e1565b925050819055507f9ed053bb818ff08b8353cd46f78db1f0799f31c9e4458fdb425c10eccd2efc44858585426040516103359493929190610624565b60405180910390a15050505050565b600081519050919050565b600082825260208201905092915050565b6000819050602082019050919050565b600073ffffffffffffffffffffffffffffffffffffffff82169050919050565b600061039b82610370565b9050919050565b6103ab81610390565b82525050565b6000819050919050565b6103c4816103b1565b82525050565b6080820160008201516103e060008501826103a2565b5060208201516103f360208501826103a2565b50604082015161040660408501826103bb565b50606082015161041960608501826103bb565b50505050565b600061042b83836103ca565b60808301905092915050565b6000602082019050919050565b600061044f82610344565b610459818561034f565b935061046483610360565b8060005b8381101561049557815161047c888261041f565b975061048783610437565b925050600181019050610468565b5085935050505092915050565b600060208201905081810360008301526104bc8184610444565b905092915050565b6104cd816103b1565b82525050565b60006020820190506104e860008301846104c4565b92915050565b600080fd5b6104fc81610390565b811461050757600080fd5b50565b600081359050610519816104f3565b92915050565b610528816103b1565b811461053357600080fd5b50565b6000813590506105458161051f565b92915050565b60008060008060808587031215610565576105646104ee565b5b60006105738782880161050a565b94505060206105848782880161050a565b935050604061059587828801610536565b92505060606105a687828801610536565b91505092959194509250565b7f4e487b7100000000000000000000000000000000000000000000000000000000600052601160045260246000fd5b60006105ec826103b1565b91506105f7836103b1565b925082820190508082111561060f5761060e6105b2565b5b92915050565b61061e81610390565b82525050565b60006080820190506106396000830187610615565b6106466020830186610615565b61065360408301856104c4565b61066060608301846104c4565b9594505050505056fea26469706673582212203af1de871fe54bb1806e630043c2b1245dd41b5794af33425586092060f52ccd64736f6c634300081a0033",
  "linkReferences": {},
  "deployedLinkReferences": {}
}